:020000040800F2
:10000000A8060020290200084D070008FD05000889
:100010004907000871030008450E000800000000B1
:1000200000000000000000000000000009090008B6
:100030007503000800000000DD070008610A0008E1
:10004000430200084302000843020008430200087C
:100050004302000843020008850300084302000829
:10006000AD030008E50300081D0400084302000872
:10007000430200084302000843020008430200084C
:10008000430200084302000843020008430200083C
:10009000430200084302000843020008430200082C
:1000A000430200084302000843020008430200081C
:1000B000430200084302000843020008430200080C
:1000C00043020008430200084302000843020008FC
:1000D00043020008110B0008430200084302000815
:1000E00043020008430200084302000843020008DC
:1000F00043020008430200084302000843020008CC
:1001000043020008430200084302000843020008BB
:1001100043020008430200084302000843020008AB
:10012000430200084302000843020008430200089B
:10013000430200084302000843020008430200088B
:10014000430200084302000843020008430200087B
:10015000430200084302000843020008430200086B
:10016000430200084302000843020008430200085B
:10017000430200084302000843020008430200084B
:10018000430200084302000800F002F800F03CF8C7
:100190000AA090E8000C82448344AAF10107DA45E2
:1001A00001D100F031F8AFF2090EBAE80F0013F0F8
:1001B000010F18BFFB1A43F001031847F80C0000A9
:1001C000180D0000103A24BF78C878C1FAD8520739
:1001D00024BF30C830C144BF04680C6070470000C1
:1001E0000023002400250026103A28BF78C1FBD840
:1001F000520728BF30C148BF0B6070471FB500F0E1
:1002000053FE1FBD10B510BD00F06EF81146FFF78C
:10021000F5FF00F02FFE00F0A0F803B4FFF7F2FFA7
:1002200003BC00F011FE0000094880470948004760
:10023000FEE7FEE7FEE7FEE7FEE7FEE7FEE7FEE796
:10024000FEE7FEE704480549054A064B70470000F3
:10025000A90A000889010008A8000020A8060020BB
:10026000A8020020A8020020704700000FB4044933
:1002700010B503AA029800F009F810BC5DF814FB51
:100280001C0000207047704770477047074B70B5DF
:100290000D467B4400F011F80446284600F020F893
:1002A00010B14FF0FF3070BD204670BDBB0B000099
:1002B00001694A1C02610878704700B58FB0CDE92A
:1002C00001310021059105497944CDE9031011461A
:1002D000684600F02EF80FB000BD0000E5FFFFFFFC
:1002E000007B00F080007047754600F03DF8AE4698
:1002F00005006946534620F00700854618B020B532
:10030000FFF7A0FFBDE820404FF000064FF00007C8
:100310004FF000084FF0000B21F00701AC46ACE8AD
:10032000C009ACE8C009ACE8C009ACE8C0098D461A
:1003300070472DE9F04106460024D6E90170F568C2
:100340008046304603E04146B847641C3046A84723
:100350000028F8D12046BDE8F0810446AFF30080C4
:100360002046FFF75AFF0000004870474800002071
:1003700000BFFEE7704710B56FF0040000F05CFBB3
:1003800010BD000010B5012000F06AF828B1054842
:100390000068C0430449C1F8A402012000F05AF8E3
:1003A00010BD0000A48242420080424210B50420E9
:1003B00000F056F880B14FF48061094800F011F95F
:1003C00028B14FF48061064800F014F904E04FF4BE
:1003D0008061034800F010F9042000F03BF810BDE4
:1003E0000014024010B5082000F03AF880B14FF434
:1003F0000051094800F0F5F828B14FF400510648C3
:1004000000F0F8F804E04FF40051034800F0F4F86D
:10041000082000F01FF810BD0010024010B5102099
:1004200000F01EF880B14FF48041094800F0D9F87F
:1004300028B14FF48041064800F0DCF804E04FF4A6
:100440008041034800F0D8F8102000F003F810BDF8
:10045000001002400149086070470000143C014050
:1004600001460020034A12680A400AB1012000E058
:1004700000207047143C0140002123498279002A62
:100480003AD00A46126803689A430B461A600A1D5E
:10049000126803689A430B1D1A60027911440A68B6
:1004A00003681A430A60184A0832126803689A43BC
:1004B000154B08331A601A1D126803689A43124BD1
:1004C0000C331A604279102A0ED11A1F1268036881
:1004D0001A430D4B08331A601A1D126803681A4339
:1004E000094B0C331A600DE00749427911440A6840
:1004F00003681A430A6005E0027911440A68036838
:100500009A430A6070470000003C0140F0B50A467B
:1005100000210023002400BF3DE0012505FA01F37E
:10052000156805EA03049C4234D105684F00032690
:10053000BE40B543056015794E00B54006683543A9
:1005400005601579012D02D01579022D16D1856827
:100550004F000326BE40B543856055794E00B54037
:10056000866835438560456801268E40B543456001
:10057000456896798E40B6B235434560C5684F00F0
:100580000326BE40B543C560D5794E00B540C66868
:100590003543C560491C1029BFD3F0BDF0B5002319
:1005A00000244D07ED0E02FA05F3CE1000F12005F0
:1005B00055F826504E07F70E0F26BE40B543CF1014
:1005C00000F1200646F82750CE1000F1200555F81E
:1005D000265045EA0304CE1000F1200545F82640D8
:1005E000F0BD0246002053690B400BB1012000E032
:1005F00000207047418370470183704700BFFEE7CA
:1006000000B585B00121112000F0EAF8012188032E
:1006100000F0F6F80120039000208DF8100003A9E7
:100620002B48FFF773FF1C20039003A92948FFF70D
:100630006DFF0021084600F069F90221042000F056
:1006400065F90321042000F061F90421084600F057
:100650005DF906208DF8080003208DF809008DF85B
:100660000A0001208DF80B0002A800F071F80820A4
:100670008DF8080002A800F06BF809208DF808003A
:1006800002A800F065F80A208DF8080002A800F022
:100690005FF80120009000208DF804000C208DF8F8
:1006A000050001208DF806006846FFF7E5FE0420EE
:1006B00000906846FFF7E0FE082000906846FFF7CC
:1006C000DBFE102000906846FFF7D6FE05B000BDA7
:1006D00000000240001002401CB50121302000F053
:1006E0007FF84FF4C060009001208DF804000220D4
:1006F0008DF8050000208DF807008DF8060069468A
:100700000F48FFF703FF4FF4C040009069460D48C3
:10071000FFF7FCFE4FF400710948FFF76DFF4FF43F
:1007200080610748FFF768FF4FF400510548FFF765
:1007300063FF4FF480410348FFF75EFF1CBD0000DC
:10074000001402400010024000BFFEE770470000A6
:1007500070B5002100230F22C4781CB3174C246805
:1007600004F4E064C4F5E064C4F30721C1F10404B7
:10077000E3B20A4144789C40E1B2847814402143BA
:100780000C07210E0E4C05786155047804F01F0506
:100790000124AC4005786D11AD0005F1E025C5F8E8
:1007A000004109E0047804F01F050124AC40054D28
:1007B0000678761145F8264070BD00000CED00E08B
:1007C00000E400E080E100E002490143024A1160D8
:1007D000704700000000FA050CED00E070470000D3
:1007E00029B1064A12680243044B1A6004E0034A26
:1007F00012688243014B1A60704700003038024093
:1008000029B1064A12680243044B1A6004E0034A05
:1008100012688243014B1A6070470000443802405E
:10082000F0B5002100220024022500260223324FC9
:100830003F6807F00C0121B1042905D0082937D100
:1008400005E02E4F076036E02D4F076033E02A4F5A
:100850003F1F3F68C7F38056274F3F1F3F6807F091
:100860003F036EB1264FB7FBF3F7DFF88CC0ACF156
:10087000040CDCF800C0CCF3881C07FB0CF40CE083
:100880001E4FB7FBF3F7DFF870C0ACF1040CDCF8D7
:1008900000C0CCF3881C07FB0CF4174F3F1F3F68C8
:1008A000C7F301477F1C7D00B4FBF5F7076002E04A
:1008B000124F076000BF00BF0F4F3F6807F0F00105
:1008C0000909104F7A5C0768D74047600A4F3F68B4
:1008D00007F4E051890A0B4F7A5C4768D74087607C
:1008E000054F3F6807F46041490B064F7A5C476843
:1008F000D740C760F0BD0000083802400024F40073
:1009000000127A00000000207047000030B500227D
:100910008B071C0F0F2303FA04F20B4B8C1053F8B8
:1009200024309343084C8D1044F8253023468C1016
:1009300053F824308C07240F00FA04F42343024CAC
:100940008D1044F8253030BD083801400CB500202A
:10095000019000903448006840F4803032490860CB
:1009600000BF3148006800F4003000900198401C3E
:100970000190009818B90198B0F5A04FF1D12A481C
:10098000006800F4003010B10120009001E0002068
:1009900000900098012846D123484030006840F07C
:1009A00080502149403108602048006840F44040B0
:1009B0001E4908601C48083000681B49083108605F
:1009C0000846006840F4004008600846006840F4AB
:1009D000A05008601648091F0860081F006840F012
:1009E0008070091F086000BF0F48006800F00070A9
:1009F0000028F9D040F205700E4908600A48083016
:100A0000006820F0030008490831086008460068C3
:100A100040F00200086000BF03480830006800F0A2
:100A20000C000828F8D10CBD0038024000700040CE
:100A300008544007003C0240042808D14FF0E02150
:100A4000096941F004014FF0E022116107E04FF025
:100A5000E021096921F004014FF0E02211617047A3
:100A60000D480068401C0C4908600C48016800688B
:100A7000401C0A4A10604FF4FA7091FBF0F200FB40
:100A8000121040B906480068C0430649C1F8B802D0
:100A9000012002490860704714000020180000205F
:100AA000B80242420000424210B51548006840F4C6
:100AB0007000134908601348006840F001001149B4
:100AC000086000200F49083108600E4800680E4990
:100AD00008400C4908600D48091D0860081F00689F
:100AE00020F48020091F0860002006490C310860AE
:100AF000FFF72CFF4FF0006001498039086010BDFE
:100B000088ED00E000380240FFFFF6FE10300024C0
:100B100010B540F22551234800F078F800283FD066
:100B200040F225511F4800F049F81E4800F028F90E
:100B3000C1B21D4802780078401C1B4B18701B483E
:100B4000815418460078801E1849085C0D2827D16A
:100B500018460078401E085C0A2821D1002014495C
:100B6000087011E0114812490978405C1149104A97
:100B70001278885400210D480D4A127881540C488F
:100B80000078401C0A49087009480078064909782D
:100B90008842E7DB012008490870002002490870FC
:100BA00010BD0000001001401000002020000020B7
:100BB00011000020340000201200002010B5002297
:100BC000002340F66A14A14200D100BF0A1201249A
:100BD0009440A3B2DC43048010BD21B1828942F469
:100BE0000052828104E082894DF6FF731A408281AF
:100BF000704702460020B1F5007F00D100BF138886
:100C00000B400BB1012000E00020704770B5024698
:100C1000002400230025002040F66A16B14200D1CE
:100C200000BFC1F3421501F01F03012606FA03F3CA
:100C3000012D02D19689334006E0022D02D1168A99
:100C4000334001E0968A33400C12012606FA04F480
:100C50001688344013B10CB1012000E0002070BDB3
:100C6000F0B50346002400260025002040F66A1750
:100C7000B94200D100BF1846C1F3421401F01F066B
:100C8000012707FA06F5012C01D10C3004E0022CF3
:100C900001D1103000E014301AB107682F4307600B
:100CA00002E00768AF430760F0BD00002DE9FF4791
:100CB00005460E460024A14600BFA046B08900B1FB
:100CC00000BF2C8A24F44054F08804432C82AC8961
:100CD00041F20C608443B08831890843718908432C
:100CE0000443AC81AC8A24F44074B0890443AC82E0
:100CF0006846FFF795FD2048854202D01F4885428F
:100D000002D1DDF80C9001E0DDF80890A88900F42C
:100D1000004040B109EBC90000EB091031684900FF
:100D2000B0FBF1F707E009EBC90000EB09103168EF
:100D30008900B0FBF1F76420B7FBF0F00401200953
:100D4000642101FB1078A88900F4004040B13220F2
:100D500000EBC800B0FBF1F000F00700044308E02E
:100D6000322000EB08106421B0FBF1F000F00F001E
:100D700004432C81BDE8FF870010014000140140AE
:100D800001468888C0F308007047C1F308028280DA
:100D90007047000000B587B001210846FFF720FD2D
:100DA00001211020FFF72CFD072209212348FFF71E
:100DB000F5FB07220A212148FFF7F0FB4FF4C06042
:100DC000059002208DF818008DF8190000208DF88C
:100DD0001A0001208DF81B0005A91848FFF796FBA3
:100DE0004FF4E13001900020ADF80800ADF80A00A2
:100DF000ADF80C00ADF810000C20ADF80E0001A904
:100E00000F48FFF753FF01210D48FFF7E6FE0122CF
:100E100040F225510A48FFF723FF25208DF80000F6
:100E200003208DF801008DF8020001208DF80300E9
:100E30006846FFF78DFC07B000BD000000000240CF
:100E40000010014000BFFEE7014600BF70470000F0
:100E500070B504460D46A1B20548FFF796FF00BFE6
:100E600080210348FFF7C5FE0028F9D0204670BD59
:100E7000001001404FF4A060FFF7A6FCFFF72CFC28
:100E8000FFF7BEFBFFF777FAFFF784FF02A0FFF73B
:100E9000EDF900BFFEE70000CFB5CDB3B3F5CABC96
:100EA000BBAF0D0A000000004FF04070E1EE100AE9
:100EB00070470000D40E0008000000202000000051
:100EC000C4010008F40E000820000020880600007D
:100ED000E001000800000000010203040102030415
:100EE00006070809000000000000000001000000E3
:040EF00000000000FE
:040000050800018965
:00000001FF
